{
  "_format": "hh-sol-artifact-1",
  "contractName": "Tinyfrens",
  "sourceName": "contracts/Tinyfrens.sol",
  "abi": [
    {
      "inputs": [],
      "stateMutability": "nonpayable",
      "type": "constructor"
    },
    {
      "anonymous": false,
      "inputs": [
        {
          "indexed": true,
          "internalType": "address",
          "name": "owner",
          "type": "address"
        },
        {
          "indexed": true,
          "internalType": "address",
          "name": "approved",
          "type": "address"
        },
        {
          "indexed": true,
          "internalType": "uint256",
          "name": "tokenId",
          "type": "uint256"
        }
      ],
      "name": "Approval",
      "type": "event"
    },
    {
      "anonymous": false,
      "inputs": [
        {
          "indexed": true,
          "internalType": "address",
          "name": "owner",
          "type": "address"
        },
        {
          "indexed": true,
          "internalType": "address",
          "name": "operator",
          "type": "address"
        },
        {
          "indexed": false,
          "internalType": "bool",
          "name": "approved",
          "type": "bool"
        }
      ],
      "name": "ApprovalForAll",
      "type": "event"
    },
    {
      "anonymous": false,
      "inputs": [
        {
          "indexed": true,
          "internalType": "address",
          "name": "previousOwner",
          "type": "address"
        },
        {
          "indexed": true,
          "internalType": "address",
          "name": "newOwner",
          "type": "address"
        }
      ],
      "name": "OwnershipTransferred",
      "type": "event"
    },
    {
      "anonymous": false,
      "inputs": [
        {
          "indexed": true,
          "internalType": "uint256",
          "name": "id",
          "type": "uint256"
        },
        {
          "indexed": true,
          "internalType": "string",
          "name": "tokenURI",
          "type": "string"
        }
      ],
      "name": "TinyfrenCreated",
      "type": "event"
    },
    {
      "anonymous": false,
      "inputs": [
        {
          "indexed": true,
          "internalType": "address",
          "name": "from",
          "type": "address"
        },
        {
          "indexed": true,
          "internalType": "address",
          "name": "to",
          "type": "address"
        },
        {
          "indexed": true,
          "internalType": "uint256",
          "name": "tokenId",
          "type": "uint256"
        }
      ],
      "name": "Transfer",
      "type": "event"
    },
    {
      "inputs": [],
      "name": "MAX_ELEMENTS",
      "outputs": [
        {
          "internalType": "uint256",
          "name": "",
          "type": "uint256"
        }
      ],
      "stateMutability": "view",
      "type": "function"
    },
    {
      "inputs": [
        {
          "internalType": "address",
          "name": "to",
          "type": "address"
        },
        {
          "internalType": "uint256",
          "name": "tokenId",
          "type": "uint256"
        }
      ],
      "name": "approve",
      "outputs": [],
      "stateMutability": "nonpayable",
      "type": "function"
    },
    {
      "inputs": [
        {
          "internalType": "address",
          "name": "owner",
          "type": "address"
        }
      ],
      "name": "balanceOf",
      "outputs": [
        {
          "internalType": "uint256",
          "name": "",
          "type": "uint256"
        }
      ],
      "stateMutability": "view",
      "type": "function"
    },
    {
      "inputs": [
        {
          "internalType": "uint256",
          "name": "tokenId",
          "type": "uint256"
        }
      ],
      "name": "getApproved",
      "outputs": [
        {
          "internalType": "address",
          "name": "",
          "type": "address"
        }
      ],
      "stateMutability": "view",
      "type": "function"
    },
    {
      "inputs": [
        {
          "internalType": "address",
          "name": "owner",
          "type": "address"
        },
        {
          "internalType": "address",
          "name": "operator",
          "type": "address"
        }
      ],
      "name": "isApprovedForAll",
      "outputs": [
        {
          "internalType": "bool",
          "name": "",
          "type": "bool"
        }
      ],
      "stateMutability": "view",
      "type": "function"
    },
    {
      "inputs": [
        {
          "internalType": "string",
          "name": "_tokenURI",
          "type": "string"
        }
      ],
      "name": "mintNft",
      "outputs": [
        {
          "internalType": "uint256",
          "name": "",
          "type": "uint256"
        }
      ],
      "stateMutability": "nonpayable",
      "type": "function"
    },
    {
      "inputs": [],
      "name": "name",
      "outputs": [
        {
          "internalType": "string",
          "name": "",
          "type": "string"
        }
      ],
      "stateMutability": "view",
      "type": "function"
    },
    {
      "inputs": [],
      "name": "owner",
      "outputs": [
        {
          "internalType": "address",
          "name": "",
          "type": "address"
        }
      ],
      "stateMutability": "view",
      "type": "function"
    },
    {
      "inputs": [
        {
          "internalType": "uint256",
          "name": "tokenId",
          "type": "uint256"
        }
      ],
      "name": "ownerOf",
      "outputs": [
        {
          "internalType": "address",
          "name": "",
          "type": "address"
        }
      ],
      "stateMutability": "view",
      "type": "function"
    },
    {
      "inputs": [],
      "name": "renounceOwnership",
      "outputs": [],
      "stateMutability": "nonpayable",
      "type": "function"
    },
    {
      "inputs": [
        {
          "internalType": "address",
          "name": "from",
          "type": "address"
        },
        {
          "internalType": "address",
          "name": "to",
          "type": "address"
        },
        {
          "internalType": "uint256",
          "name": "tokenId",
          "type": "uint256"
        }
      ],
      "name": "safeTransferFrom",
      "outputs": [],
      "stateMutability": "nonpayable",
      "type": "function"
    },
    {
      "inputs": [
        {
          "internalType": "address",
          "name": "from",
          "type": "address"
        },
        {
          "internalType": "address",
          "name": "to",
          "type": "address"
        },
        {
          "internalType": "uint256",
          "name": "tokenId",
          "type": "uint256"
        },
        {
          "internalType": "bytes",
          "name": "data",
          "type": "bytes"
        }
      ],
      "name": "safeTransferFrom",
      "outputs": [],
      "stateMutability": "nonpayable",
      "type": "function"
    },
    {
      "inputs": [
        {
          "internalType": "address",
          "name": "operator",
          "type": "address"
        },
        {
          "internalType": "bool",
          "name": "approved",
          "type": "bool"
        }
      ],
      "name": "setApprovalForAll",
      "outputs": [],
      "stateMutability": "nonpayable",
      "type": "function"
    },
    {
      "inputs": [
        {
          "internalType": "bytes4",
          "name": "interfaceId",
          "type": "bytes4"
        }
      ],
      "name": "supportsInterface",
      "outputs": [
        {
          "internalType": "bool",
          "name": "",
          "type": "bool"
        }
      ],
      "stateMutability": "view",
      "type": "function"
    },
    {
      "inputs": [],
      "name": "symbol",
      "outputs": [
        {
          "internalType": "string",
          "name": "",
          "type": "string"
        }
      ],
      "stateMutability": "view",
      "type": "function"
    },
    {
      "inputs": [
        {
          "internalType": "uint256",
          "name": "tokenId",
          "type": "uint256"
        }
      ],
      "name": "tokenURI",
      "outputs": [
        {
          "internalType": "string",
          "name": "",
          "type": "string"
        }
      ],
      "stateMutability": "view",
      "type": "function"
    },
    {
      "inputs": [
        {
          "internalType": "address",
          "name": "from",
          "type": "address"
        },
        {
          "internalType": "address",
          "name": "to",
          "type": "address"
        },
        {
          "internalType": "uint256",
          "name": "tokenId",
          "type": "uint256"
        }
      ],
      "name": "transferFrom",
      "outputs": [],
      "stateMutability": "nonpayable",
      "type": "function"
    },
    {
      "inputs": [
        {
          "internalType": "address",
          "name": "newOwner",
          "type": "address"
        }
      ],
      "name": "transferOwnership",
      "outputs": [],
      "stateMutability": "nonpayable",
      "type": "function"
    }
  ],
  "bytecode": "0x60806040523480156200001157600080fd5b506040518060400160405280600981526020017f74696e796672656e7300000000000000000000000000000000000000000000008152506040518060400160405280600481526020017f4652454e00000000000000000000000000000000000000000000000000000000815250816000908051906020019062000096929190620001a6565b508060019080519060200190620000af929190620001a6565b505050620000d2620000c6620000d860201b60201c565b620000e060201b60201c565b620002bb565b600033905090565b6000600760009054906101000a900473ffffffffffffffffffffffffffffffffffffffff16905081600760006101000a81548173ffffffffffffffffffffffffffffffffffffffff021916908373ffffffffffffffffffffffffffffffffffffffff1602179055508173ffffffffffffffffffffffffffffffffffffffff168173ffffffffffffffffffffffffffffffffffffffff167f8be0079c531659141344cd1fd0a4f28419497f9722a3daafe3b4186f6b6457e060405160405180910390a35050565b828054620001b49062000285565b90600052602060002090601f016020900481019282620001d8576000855562000224565b82601f10620001f357805160ff191683800117855562000224565b8280016001018555821562000224579182015b828111156200022357825182559160200191906001019062000206565b5b50905062000233919062000237565b5090565b5b808211156200025257600081600090555060010162000238565b5090565b7f4e487b7100000000000000000000000000000000000000000000000000000000600052602260045260246000fd5b600060028204905060018216806200029e57607f821691505b60208210811415620002b557620002b462000256565b5b50919050565b612dbe80620002cb6000396000f3fe608060405234801561001057600080fd5b50600436106101165760003560e01c8063715018a6116100a2578063b88d4fde11610071578063b88d4fde146102cd578063c87b56dd146102e9578063da86f4a914610319578063e985e9c514610349578063f2fde38b1461037957610116565b8063715018a61461026b5780638da5cb5b1461027557806395d89b4114610293578063a22cb465146102b157610116565b806323b872dd116100e957806323b872dd146101b55780633502a716146101d157806342842e0e146101ef5780636352211e1461020b57806370a082311461023b57610116565b806301ffc9a71461011b57806306fdde031461014b578063081812fc14610169578063095ea7b314610199575b600080fd5b61013560048036038101906101309190611c20565b610395565b6040516101429190611c68565b60405180910390f35b610153610477565b6040516101609190611d1c565b60405180910390f35b610183600480360381019061017e9190611d74565b610509565b6040516101909190611de2565b60405180910390f35b6101b360048036038101906101ae9190611e29565b61054f565b005b6101cf60048036038101906101ca9190611e69565b610667565b005b6101d96106c7565b6040516101e69190611ecb565b60405180910390f35b61020960048036038101906102049190611e69565b6106cc565b005b61022560048036038101906102209190611d74565b6106ec565b6040516102329190611de2565b60405180910390f35b61025560048036038101906102509190611ee6565b61079e565b6040516102629190611ecb565b60405180910390f35b610273610856565b005b61027d61086a565b60405161028a9190611de2565b60405180910390f35b61029b610894565b6040516102a89190611d1c565b60405180910390f35b6102cb60048036038101906102c69190611f3f565b610926565b005b6102e760048036038101906102e291906120b4565b61093c565b005b61030360048036038101906102fe9190611d74565b61099e565b6040516103109190611d1c565b60405180910390f35b610333600480360381019061032e91906121d8565b610ab1565b6040516103409190611ecb565b60405180910390f35b610363600480360381019061035e9190612221565b610b7f565b6040516103709190611c68565b60405180910390f35b610393600480360381019061038e9190611ee6565b610c13565b005b60007f80ac58cd000000000000000000000000000000000000000000000000000000007bffffffffffffffffffffffffffffffffffffffffffffffffffffffff1916827bffffffffffffffffffffffffffffffffffffffffffffffffffffffff1916148061046057507f5b5e139f000000000000000000000000000000000000000000000000000000007bffffffffffffffffffffffffffffffffffffffffffffffffffffffff1916827bffffffffffffffffffffffffffffffffffffffffffffffffffffffff1916145b80610470575061046f82610c97565b5b9050919050565b60606000805461048690612290565b80601f01602080910402602001604051908101604052809291908181526020018280546104b290612290565b80156104ff5780601f106104d4576101008083540402835291602001916104ff565b820191906000526020600020905b8154815290600101906020018083116104e257829003601f168201915b5050505050905090565b600061051482610d01565b6004600083815260200190815260200160002060009054906101000a900473ffffffffffffffffffffffffffffffffffffffff169050919050565b600061055a826106ec565b90508073ffffffffffffffffffffffffffffffffffffffff168373ffffffffffffffffffffffffffffffffffffffff1614156105cb576040517f08c379a00000000000000000000000000000000000000000000000000000000081526004016105c290612334565b60405180910390fd5b8073ffffffffffffffffffffffffffffffffffffffff166105ea610d4c565b73ffffffffffffffffffffffffffffffffffffffff161480610619575061061881610613610d4c565b610b7f565b5b610658576040517f08c379a000000000000000000000000000000000000000000000000000000000815260040161064f906123c6565b60405180910390fd5b6106628383610d54565b505050565b610678610672610d4c565b82610e0d565b6106b7576040517f08c379a00000000000000000000000000000000000000000000000000000000081526004016106ae90612458565b60405180910390fd5b6106c2838383610ea2565b505050565b600a81565b6106e78383836040518060200160405280600081525061093c565b505050565b6000806002600084815260200190815260200160002060009054906101000a900473ffffffffffffffffffffffffffffffffffffffff169050600073ffffffffffffffffffffffffffffffffffffffff168173ffffffffffffffffffffffffffffffffffffffff161415610795576040517f08c379a000000000000000000000000000000000000000000000000000000000815260040161078c906124c4565b60405180910390fd5b80915050919050565b60008073ffffffffffffffffffffffffffffffffffffffff168273ffffffffffffffffffffffffffffffffffffffff16141561080f576040517f08c379a000000000000000000000000000000000000000000000000000000000815260040161080690612556565b60405180910390fd5b600360008373ffffffffffffffffffffffffffffffffffffffff1673ffffffffffffffffffffffffffffffffffffffff168152602001908152602001600020549050919050565b61085e611109565b6108686000611187565b565b6000600760009054906101000a900473ffffffffffffffffffffffffffffffffffffffff16905090565b6060600180546108a390612290565b80601f01602080910402602001604051908101604052809291908181526020018280546108cf90612290565b801561091c5780601f106108f15761010080835404028352916020019161091c565b820191906000526020600020905b8154815290600101906020018083116108ff57829003601f168201915b5050505050905090565b610938610931610d4c565b838361124d565b5050565b61094d610947610d4c565b83610e0d565b61098c576040517f08c379a000000000000000000000000000000000000000000000000000000000815260040161098390612458565b60405180910390fd5b610998848484846113ba565b50505050565b60606109a982610d01565b60006006600084815260200190815260200160002080546109c990612290565b80601f01602080910402602001604051908101604052809291908181526020018280546109f590612290565b8015610a425780601f10610a1757610100808354040283529160200191610a42565b820191906000526020600020905b815481529060010190602001808311610a2557829003601f168201915b505050505090506000610a53611416565b9050600081511415610a69578192505050610aac565b600082511115610a9e578082604051602001610a869291906125b2565b60405160208183030381529060405292505050610aac565b610aa78461142d565b925050505b919050565b6000610abb611109565b600a610ac76008611495565b10610b07576040517f08c379a0000000000000000000000000000000000000000000000000000000008152600401610afe90612622565b60405180910390fd5b610b1160086114a3565b6000610b1d6008611495565b9050610b2933826114b9565b610b3381846114d7565b82604051610b419190612642565b6040518091039020817f332378f0a487680a76485ec69b4c69a9ee1e90e65ea5fd121c653520e1abd78b60405160405180910390a380915050919050565b6000600560008473ffffffffffffffffffffffffffffffffffffffff1673ffffffffffffffffffffffffffffffffffffffff16815260200190815260200160002060008373ffffffffffffffffffffffffffffffffffffffff1673ffffffffffffffffffffffffffffffffffffffff16815260200190815260200160002060009054906101000a900460ff16905092915050565b610c1b611109565b600073ffffffffffffffffffffffffffffffffffffffff168173ffffffffffffffffffffffffffffffffffffffff161415610c8b576040517f08c379a0000000000000000000000000000000000000000000000000000000008152600401610c82906126cb565b60405180910390fd5b610c9481611187565b50565b60007f01ffc9a7000000000000000000000000000000000000000000000000000000007bffffffffffffffffffffffffffffffffffffffffffffffffffffffff1916827bffffffffffffffffffffffffffffffffffffffffffffffffffffffff1916149050919050565b610d0a8161154b565b610d49576040517f08c379a0000000000000000000000000000000000000000000000000000000008152600401610d40906124c4565b60405180910390fd5b50565b600033905090565b816004600083815260200190815260200160002060006101000a81548173ffffffffffffffffffffffffffffffffffffffff021916908373ffffffffffffffffffffffffffffffffffffffff160217905550808273ffffffffffffffffffffffffffffffffffffffff16610dc7836106ec565b73ffffffffffffffffffffffffffffffffffffffff167f8c5be1e5ebec7d5bd14f71427d1e84f3dd0314c0f7b2291e5b200ac8c7c3b92560405160405180910390a45050565b600080610e19836106ec565b90508073ffffffffffffffffffffffffffffffffffffffff168473ffffffffffffffffffffffffffffffffffffffff161480610e5b5750610e5a8185610b7f565b5b80610e9957508373ffffffffffffffffffffffffffffffffffffffff16610e8184610509565b73ffffffffffffffffffffffffffffffffffffffff16145b91505092915050565b8273ffffffffffffffffffffffffffffffffffffffff16610ec2826106ec565b73ffffffffffffffffffffffffffffffffffffffff1614610f18576040517f08c379a0000000000000000000000000000000000000000000000000000000008152600401610f0f9061275d565b60405180910390fd5b600073ffffffffffffffffffffffffffffffffffffffff168273ffffffffffffffffffffffffffffffffffffffff161415610f88576040517f08c379a0000000000000000000000000000000000000000000000000000000008152600401610f7f906127ef565b60405180910390fd5b610f938383836115b7565b610f9e600082610d54565b6001600360008573ffffffffffffffffffffffffffffffffffffffff1673ffffffffffffffffffffffffffffffffffffffff1681526020019081526020016000206000828254610fee919061283e565b925050819055506001600360008473ffffffffffffffffffffffffffffffffffffffff1673ffffffffffffffffffffffffffffffffffffffff16815260200190815260200160002060008282546110459190612872565b92505081905550816002600083815260200190815260200160002060006101000a81548173ffffffffffffffffffffffffffffffffffffffff021916908373ffffffffffffffffffffffffffffffffffffffff160217905550808273ffffffffffffffffffffffffffffffffffffffff168473ffffffffffffffffffffffffffffffffffffffff167fddf252ad1be2c89b69c2b068fc378daa952ba7f163c4a11628f55a4df523b3ef60405160405180910390a46111048383836115bc565b505050565b611111610d4c565b73ffffffffffffffffffffffffffffffffffffffff1661112f61086a565b73ffffffffffffffffffffffffffffffffffffffff1614611185576040517f08c379a000000000000000000000000000000000000000000000000000000000815260040161117c90612914565b60405180910390fd5b565b6000600760009054906101000a900473ffffffffffffffffffffffffffffffffffffffff16905081600760006101000a81548173ffffffffffffffffffffffffffffffffffffffff021916908373ffffffffffffffffffffffffffffffffffffffff1602179055508173ffffffffffffffffffffffffffffffffffffffff168173ffffffffffffffffffffffffffffffffffffffff167f8be0079c531659141344cd1fd0a4f28419497f9722a3daafe3b4186f6b6457e060405160405180910390a35050565b8173ffffffffffffffffffffffffffffffffffffffff168373ffffffffffffffffffffffffffffffffffffffff1614156112bc576040517f08c379a00000000000000000000000000000000000000000000000000000000081526004016112b390612980565b60405180910390fd5b80600560008573ffffffffffffffffffffffffffffffffffffffff1673ffffffffffffffffffffffffffffffffffffffff16815260200190815260200160002060008473ffffffffffffffffffffffffffffffffffffffff1673ffffffffffffffffffffffffffffffffffffffff16815260200190815260200160002060006101000a81548160ff0219169083151502179055508173ffffffffffffffffffffffffffffffffffffffff168373ffffffffffffffffffffffffffffffffffffffff167f17307eab39ab6107e8899845ad3d59bd9653f200f220920489ca2b5937696c31836040516113ad9190611c68565b60405180910390a3505050565b6113c5848484610ea2565b6113d1848484846115c1565b611410576040517f08c379a000000000000000000000000000000000000000000000000000000000815260040161140790612a12565b60405180910390fd5b50505050565b606060405180602001604052806000815250905090565b606061143882610d01565b6000611442611416565b90506000815111611462576040518060200160405280600081525061148d565b8061146c84611758565b60405160200161147d9291906125b2565b6040516020818303038152906040525b915050919050565b600081600001549050919050565b6001816000016000828254019250508190555050565b6114d38282604051806020016040528060008152506118b9565b5050565b6114e08261154b565b61151f576040517f08c379a000000000000000000000000000000000000000000000000000000000815260040161151690612aa4565b60405180910390fd5b80600660008481526020019081526020016000209080519060200190611546929190611b11565b505050565b60008073ffffffffffffffffffffffffffffffffffffffff166002600084815260200190815260200160002060009054906101000a900473ffffffffffffffffffffffffffffffffffffffff1673ffffffffffffffffffffffffffffffffffffffff1614159050919050565b505050565b505050565b60006115e28473ffffffffffffffffffffffffffffffffffffffff16611914565b1561174b578373ffffffffffffffffffffffffffffffffffffffff1663150b7a0261160b610d4c565b8786866040518563ffffffff1660e01b815260040161162d9493929190612b19565b602060405180830381600087803b15801561164757600080fd5b505af192505050801561167857506040513d601f19601f820116820180604052508101906116759190612b7a565b60015b6116fb573d80600081146116a8576040519150601f19603f3d011682016040523d82523d6000602084013e6116ad565b606091505b506000815114156116f3576040517f08c379a00000000000000000000000000000000000000000000000000000000081526004016116ea90612a12565b60405180910390fd5b805181602001fd5b63150b7a0260e01b7bffffffffffffffffffffffffffffffffffffffffffffffffffffffff1916817bffffffffffffffffffffffffffffffffffffffffffffffffffffffff191614915050611750565b600190505b949350505050565b606060008214156117a0576040518060400160405280600181526020017f300000000000000000000000000000000000000000000000000000000000000081525090506118b4565b600082905060005b600082146117d25780806117bb90612ba7565b915050600a826117cb9190612c1f565b91506117a8565b60008167ffffffffffffffff8111156117ee576117ed611f89565b5b6040519080825280601f01601f1916602001820160405280156118205781602001600182028036833780820191505090505b5090505b600085146118ad57600182611839919061283e565b9150600a856118489190612c50565b60306118549190612872565b60f81b81838151811061186a57611869612c81565b5b60200101907effffffffffffffffffffffffffffffffffffffffffffffffffffffffffffff1916908160001a905350600a856118a69190612c1f565b9450611824565b8093505050505b919050565b6118c38383611937565b6118d060008484846115c1565b61190f576040517f08c379a000000000000000000000000000000000000000000000000000000000815260040161190690612a12565b60405180910390fd5b505050565b6000808273ffffffffffffffffffffffffffffffffffffffff163b119050919050565b600073ffffffffffffffffffffffffffffffffffffffff168273ffffffffffffffffffffffffffffffffffffffff1614156119a7576040517f08c379a000000000000000000000000000000000000000000000000000000000815260040161199e90612cfc565b60405180910390fd5b6119b08161154b565b156119f0576040517f08c379a00000000000000000000000000000000000000000000000000000000081526004016119e790612d68565b60405180910390fd5b6119fc600083836115b7565b6001600360008473ffffffffffffffffffffffffffffffffffffffff1673ffffffffffffffffffffffffffffffffffffffff1681526020019081526020016000206000828254611a4c9190612872565b92505081905550816002600083815260200190815260200160002060006101000a81548173ffffffffffffffffffffffffffffffffffffffff021916908373ffffffffffffffffffffffffffffffffffffffff160217905550808273ffffffffffffffffffffffffffffffffffffffff16600073ffffffffffffffffffffffffffffffffffffffff167fddf252ad1be2c89b69c2b068fc378daa952ba7f163c4a11628f55a4df523b3ef60405160405180910390a4611b0d600083836115bc565b5050565b828054611b1d90612290565b90600052602060002090601f016020900481019282611b3f5760008555611b86565b82601f10611b5857805160ff1916838001178555611b86565b82800160010185558215611b86579182015b82811115611b85578251825591602001919060010190611b6a565b5b509050611b939190611b97565b5090565b5b80821115611bb0576000816000905550600101611b98565b5090565b6000604051905090565b600080fd5b600080fd5b60007fffffffff0000000000000000000000000000000000000000000000000000000082169050919050565b611bfd81611bc8565b8114611c0857600080fd5b50565b600081359050611c1a81611bf4565b92915050565b600060208284031215611c3657611c35611bbe565b5b6000611c4484828501611c0b565b91505092915050565b60008115159050919050565b611c6281611c4d565b82525050565b6000602082019050611c7d6000830184611c59565b92915050565b600081519050919050565b600082825260208201905092915050565b60005b83811015611cbd578082015181840152602081019050611ca2565b83811115611ccc576000848401525b50505050565b6000601f19601f8301169050919050565b6000611cee82611c83565b611cf88185611c8e565b9350611d08818560208601611c9f565b611d1181611cd2565b840191505092915050565b60006020820190508181036000830152611d368184611ce3565b905092915050565b6000819050919050565b611d5181611d3e565b8114611d5c57600080fd5b50565b600081359050611d6e81611d48565b92915050565b600060208284031215611d8a57611d89611bbe565b5b6000611d9884828501611d5f565b91505092915050565b600073ffffffffffffffffffffffffffffffffffffffff82169050919050565b6000611dcc82611da1565b9050919050565b611ddc81611dc1565b82525050565b6000602082019050611df76000830184611dd3565b92915050565b611e0681611dc1565b8114611e1157600080fd5b50565b600081359050611e2381611dfd565b92915050565b60008060408385031215611e4057611e3f611bbe565b5b6000611e4e85828601611e14565b9250506020611e5f85828601611d5f565b9150509250929050565b600080600060608486031215611e8257611e81611bbe565b5b6000611e9086828701611e14565b9350506020611ea186828701611e14565b9250506040611eb286828701611d5f565b9150509250925092565b611ec581611d3e565b82525050565b6000602082019050611ee06000830184611ebc565b92915050565b600060208284031215611efc57611efb611bbe565b5b6000611f0a84828501611e14565b91505092915050565b611f1c81611c4d565b8114611f2757600080fd5b50565b600081359050611f3981611f13565b92915050565b60008060408385031215611f5657611f55611bbe565b5b6000611f6485828601611e14565b9250506020611f7585828601611f2a565b9150509250929050565b600080fd5b600080fd5b7f4e487b7100000000000000000000000000000000000000000000000000000000600052604160045260246000fd5b611fc182611cd2565b810181811067ffffffffffffffff82111715611fe057611fdf611f89565b5b80604052505050565b6000611ff3611bb4565b9050611fff8282611fb8565b919050565b600067ffffffffffffffff82111561201f5761201e611f89565b5b61202882611cd2565b9050602081019050919050565b82818337600083830152505050565b600061205761205284612004565b611fe9565b90508281526020810184848401111561207357612072611f84565b5b61207e848285612035565b509392505050565b600082601f83011261209b5761209a611f7f565b5b81356120ab848260208601612044565b91505092915050565b600080600080608085870312156120ce576120cd611bbe565b5b60006120dc87828801611e14565b94505060206120ed87828801611e14565b93505060406120fe87828801611d5f565b925050606085013567ffffffffffffffff81111561211f5761211e611bc3565b5b61212b87828801612086565b91505092959194509250565b600067ffffffffffffffff82111561215257612151611f89565b5b61215b82611cd2565b9050602081019050919050565b600061217b61217684612137565b611fe9565b90508281526020810184848401111561219757612196611f84565b5b6121a2848285612035565b509392505050565b600082601f8301126121bf576121be611f7f565b5b81356121cf848260208601612168565b91505092915050565b6000602082840312156121ee576121ed611bbe565b5b600082013567ffffffffffffffff81111561220c5761220b611bc3565b5b612218848285016121aa565b91505092915050565b6000806040838503121561223857612237611bbe565b5b600061224685828601611e14565b925050602061225785828601611e14565b9150509250929050565b7f4e487b7100000000000000000000000000000000000000000000000000000000600052602260045260246000fd5b600060028204905060018216806122a857607f821691505b602082108114156122bc576122bb612261565b5b50919050565b7f4552433732313a20617070726f76616c20746f2063757272656e74206f776e6560008201527f7200000000000000000000000000000000000000000000000000000000000000602082015250565b600061231e602183611c8e565b9150612329826122c2565b604082019050919050565b6000602082019050818103600083015261234d81612311565b9050919050565b7f4552433732313a20617070726f76652063616c6c6572206973206e6f7420746f60008201527f6b656e206f776e6572206e6f7220617070726f76656420666f7220616c6c0000602082015250565b60006123b0603e83611c8e565b91506123bb82612354565b604082019050919050565b600060208201905081810360008301526123df816123a3565b9050919050565b7f4552433732313a2063616c6c6572206973206e6f7420746f6b656e206f776e6560008201527f72206e6f7220617070726f766564000000000000000000000000000000000000602082015250565b6000612442602e83611c8e565b915061244d826123e6565b604082019050919050565b6000602082019050818103600083015261247181612435565b9050919050565b7f4552433732313a20696e76616c696420746f6b656e2049440000000000000000600082015250565b60006124ae601883611c8e565b91506124b982612478565b602082019050919050565b600060208201905081810360008301526124dd816124a1565b9050919050565b7f4552433732313a2061646472657373207a65726f206973206e6f74206120766160008201527f6c6964206f776e65720000000000000000000000000000000000000000000000602082015250565b6000612540602983611c8e565b915061254b826124e4565b604082019050919050565b6000602082019050818103600083015261256f81612533565b9050919050565b600081905092915050565b600061258c82611c83565b6125968185612576565b93506125a6818560208601611c9f565b80840191505092915050565b60006125be8285612581565b91506125ca8284612581565b91508190509392505050565b7f4d6178206d696e74656400000000000000000000000000000000000000000000600082015250565b600061260c600a83611c8e565b9150612617826125d6565b602082019050919050565b6000602082019050818103600083015261263b816125ff565b9050919050565b600061264e8284612581565b915081905092915050565b7f4f776e61626c653a206e6577206f776e657220697320746865207a65726f206160008201527f6464726573730000000000000000000000000000000000000000000000000000602082015250565b60006126b5602683611c8e565b91506126c082612659565b604082019050919050565b600060208201905081810360008301526126e4816126a8565b9050919050565b7f4552433732313a207472616e736665722066726f6d20696e636f72726563742060008201527f6f776e6572000000000000000000000000000000000000000000000000000000602082015250565b6000612747602583611c8e565b9150612752826126eb565b604082019050919050565b600060208201905081810360008301526127768161273a565b9050919050565b7f4552433732313a207472616e7366657220746f20746865207a65726f2061646460008201527f7265737300000000000000000000000000000000000000000000000000000000602082015250565b60006127d9602483611c8e565b91506127e48261277d565b604082019050919050565b60006020820190508181036000830152612808816127cc565b9050919050565b7f4e487b7100000000000000000000000000000000000000000000000000000000600052601160045260246000fd5b600061284982611d3e565b915061285483611d3e565b9250828210156128675761286661280f565b5b828203905092915050565b600061287d82611d3e565b915061288883611d3e565b9250827fffffffffffffffffffffffffffffffffffffffffffffffffffffffffffffffff038211156128bd576128bc61280f565b5b828201905092915050565b7f4f776e61626c653a2063616c6c6572206973206e6f7420746865206f776e6572600082015250565b60006128fe602083611c8e565b9150612909826128c8565b602082019050919050565b6000602082019050818103600083015261292d816128f1565b9050919050565b7f4552433732313a20617070726f766520746f2063616c6c657200000000000000600082015250565b600061296a601983611c8e565b915061297582612934565b602082019050919050565b600060208201905081810360008301526129998161295d565b9050919050565b7f4552433732313a207472616e7366657220746f206e6f6e20455243373231526560008201527f63656976657220696d706c656d656e7465720000000000000000000000000000602082015250565b60006129fc603283611c8e565b9150612a07826129a0565b604082019050919050565b60006020820190508181036000830152612a2b816129ef565b9050919050565b7f45524337323155524953746f726167653a2055524920736574206f66206e6f6e60008201527f6578697374656e7420746f6b656e000000000000000000000000000000000000602082015250565b6000612a8e602e83611c8e565b9150612a9982612a32565b604082019050919050565b60006020820190508181036000830152612abd81612a81565b9050919050565b600081519050919050565b600082825260208201905092915050565b6000612aeb82612ac4565b612af58185612acf565b9350612b05818560208601611c9f565b612b0e81611cd2565b840191505092915050565b6000608082019050612b2e6000830187611dd3565b612b3b6020830186611dd3565b612b486040830185611ebc565b8181036060830152612b5a8184612ae0565b905095945050505050565b600081519050612b7481611bf4565b92915050565b600060208284031215612b9057612b8f611bbe565b5b6000612b9e84828501612b65565b91505092915050565b6000612bb282611d3e565b91507fffffffffffffffffffffffffffffffffffffffffffffffffffffffffffffffff821415612be557612be461280f565b5b600182019050919050565b7f4e487b7100000000000000000000000000000000000000000000000000000000600052601260045260246000fd5b6000612c2a82611d3e565b9150612c3583611d3e565b925082612c4557612c44612bf0565b5b828204905092915050565b6000612c5b82611d3e565b9150612c6683611d3e565b925082612c7657612c75612bf0565b5b828206905092915050565b7f4e487b7100000000000000000000000000000000000000000000000000000000600052603260045260246000fd5b7f4552433732313a206d696e7420746f20746865207a65726f2061646472657373600082015250565b6000612ce6602083611c8e565b9150612cf182612cb0565b602082019050919050565b60006020820190508181036000830152612d1581612cd9565b9050919050565b7f4552433732313a20746f6b656e20616c7265616479206d696e74656400000000600082015250565b6000612d52601c83611c8e565b9150612d5d82612d1c565b602082019050919050565b60006020820190508181036000830152612d8181612d45565b905091905056fea26469706673582212207c0ef3a0f4bb2650eae957629bdac9eeb44bcb5b9eb35cce8cc6f0094badd17364736f6c63430008090033",
  "linkReferences": {},
  "deployedLinkReferences": {}
}